{"abi":[{"type":"constructor","inputs":[],"stateMutability":"nonpayable"},{"type":"function","name":"RATE_PRECISION","inputs":[],"outputs":[{"name":"","type":"uint256","internalType":"uint256"}],"stateMutability":"view"},{"type":"function","name":"batchSetRates","inputs":[{"name":"tokens","type":"address[]","internalType":"address[]"},{"name":"rates","type":"uint256[]","internalType":"uint256[]"}],"outputs":[],"stateMutability":"nonpayable"},{"type":"function","name":"convertAmount","inputs":[{"name":"fromToken","type":"address","internalType":"address"},{"name":"toToken","type":"address","internalType":"address"},{"name":"amount","type":"uint256","internalType":"uint256"}],"outputs":[{"name":"convertedAmount","type":"uint256","internalType":"uint256"}],"stateMutability":"view"},{"type":"function","name":"getBatchRates","inputs":[{"name":"tokens","type":"address[]","internalType":"address[]"}],"outputs":[{"name":"rates","type":"uint256[]","internalType":"uint256[]"}],"stateMutability":"view"},{"type":"function","name":"getRate","inputs":[{"name":"token","type":"address","internalType":"address"}],"outputs":[{"name":"rate","type":"uint256","internalType":"uint256"}],"stateMutability":"view"},{"type":"function","name":"isTokenSupported","inputs":[{"name":"token","type":"address","internalType":"address"}],"outputs":[{"name":"supported","type":"bool","internalType":"bool"}],"stateMutability":"view"},{"type":"function","name":"owner","inputs":[],"outputs":[{"name":"","type":"address","internalType":"address"}],"stateMutability":"view"},{"type":"function","name":"setRate","inputs":[{"name":"token","type":"address","internalType":"address"},{"name":"rateInNGN","type":"uint256","internalType":"uint256"}],"outputs":[],"stateMutability":"nonpayable"},{"type":"function","name":"transferOwnership","inputs":[{"name":"newOwner","type":"address","internalType":"address"}],"outputs":[],"stateMutability":"nonpayable"},{"type":"event","name":"RateUpdated","inputs":[{"name":"token","type":"address","indexed":true,"internalType":"address"},{"name":"oldRate","type":"uint256","indexed":false,"internalType":"uint256"},{"name":"newRate","type":"uint256","indexed":false,"internalType":"uint256"},{"name":"timestamp","type":"uint256","indexed":false,"internalType":"uint256"}],"anonymous":false}],"bytecode":{"object":"0x608060405234801561001057600080fd5b50600180546001600160a01b03191633179055610aea806100326000396000f3fe608060405234801561001057600080fd5b50600436106100935760003560e01c80634e444e7c116100665780634e444e7c1461010b57806369e1829d1461012b57806375151b631461013e5780638da5cb5b14610179578063f2fde38b146101a457600080fd5b80632b3ba681146100985780632bdb7097146100ba5780633614c54b146100cf57806337cef791146100e2575b600080fd5b6100a7670de0b6b3a764000081565b6040519081526020015b60405180910390f35b6100cd6100c836600461070b565b6101b7565b005b6100cd6100dd366004610812565b61026e565b6100a76100f03660046108cd565b6001600160a01b031660009081526020819052604090205490565b61011e6101193660046108ef565b61046d565b6040516100b1919061092c565b6100a7610139366004610970565b610534565b61016961014c3660046108cd565b6001600160a01b0316600090815260208190526040902054151590565b60405190151581526020016100b1565b60015461018c906001600160a01b031681565b6040516001600160a01b0390911681526020016100b1565b6100cd6101b23660046108cd565b61063d565b6001546001600160a01b031633146101ea5760405162461bcd60e51b81526004016101e1906109ac565b60405180910390fd5b6000811161020a5760405162461bcd60e51b81526004016101e1906109ed565b6001600160a01b038216600081815260208181526040918290208054908590558251818152918201859052428284015291519192917fa1c7653a506e1197e4a2fd8129b4f8b5a42c6b83feb9ec61875f8f35b71384b69181900360600190a2505050565b6001546001600160a01b031633146102985760405162461bcd60e51b81526004016101e1906109ac565b80518251146102f55760405162461bcd60e51b815260206004820152602360248201527f4d6f636b46784f7261636c653a206172726179206c656e677468206d69736d616044820152620e8c6d60eb1b60648201526084016101e1565b60005b825181101561046857600082828151811061031557610315610a30565b60200260200101511161033a5760405162461bcd60e51b81526004016101e1906109ed565b600080600085848151811061035157610351610a30565b60200260200101516001600160a01b03166001600160a01b0316815260200190815260200160002054905082828151811061038e5761038e610a30565b60200260200101516000808685815181106103ab576103ab610a30565b60200260200101516001600160a01b03166001600160a01b03168152602001908152602001600020819055508382815181106103e9576103e9610a30565b60200260200101516001600160a01b03167fa1c7653a506e1197e4a2fd8129b4f8b5a42c6b83feb9ec61875f8f35b71384b68285858151811061042e5761042e610a30565b6020908102919091018101516040805193845291830152429082015260600160405180910390a2508061046081610a5c565b9150506102f8565b505050565b6060815167ffffffffffffffff81111561048957610489610735565b6040519080825280602002602001820160405280156104b2578160200160208202803683370190505b50905060005b825181101561052e576000808483815181106104d6576104d6610a30565b60200260200101516001600160a01b03166001600160a01b031681526020019081526020016000205482828151811061051157610511610a30565b60209081029190910101528061052681610a5c565b9150506104b8565b50919050565b6001600160a01b03808416600090815260208190526040808220549285168252812054909190816105b85760405162461bcd60e51b815260206004820152602860248201527f4d6f636b46784f7261636c653a20736f7572636520746f6b656e206e6f7420736044820152671d5c1c1bdc9d195960c21b60648201526084016101e1565b6000811161061e5760405162461bcd60e51b815260206004820152602d60248201527f4d6f636b46784f7261636c653a2064657374696e6174696f6e20746f6b656e2060448201526c1b9bdd081cdd5c1c1bdc9d1959609a1b60648201526084016101e1565b806106298386610a75565b6106339190610a92565b9695505050505050565b6001546001600160a01b031633146106675760405162461bcd60e51b81526004016101e1906109ac565b6001600160a01b0381166106cd5760405162461bcd60e51b815260206004820152602760248201527f4d6f636b46784f7261636c653a206e6577206f776e6572206973207a65726f206044820152666164647265737360c81b60648201526084016101e1565b600180546001600160a01b0319166001600160a01b0392909216919091179055565b80356001600160a01b038116811461070657600080fd5b919050565b6000806040838503121561071e57600080fd5b610727836106ef565b946020939093013593505050565b634e487b7160e01b600052604160045260246000fd5b604051601f8201601f1916810167ffffffffffffffff8111828210171561077457610774610735565b604052919050565b600067ffffffffffffffff82111561079657610796610735565b5060051b60200190565b600082601f8301126107b157600080fd5b813560206107c66107c18361077c565b61074b565b82815260059290921b840181019181810190868411156107e557600080fd5b8286015b84811015610807576107fa816106ef565b83529183019183016107e9565b509695505050505050565b6000806040838503121561082557600080fd5b823567ffffffffffffffff8082111561083d57600080fd5b610849868387016107a0565b935060209150818501358181111561086057600080fd5b85019050601f8101861361087357600080fd5b80356108816107c18261077c565b81815260059190911b820183019083810190888311156108a057600080fd5b928401925b828410156108be578335825292840192908401906108a5565b80955050505050509250929050565b6000602082840312156108df57600080fd5b6108e8826106ef565b9392505050565b60006020828403121561090157600080fd5b813567ffffffffffffffff81111561091857600080fd5b610924848285016107a0565b949350505050565b6020808252825182820181905260009190848201906040850190845b8181101561096457835183529284019291840191600101610948565b50909695505050505050565b60008060006060848603121561098557600080fd5b61098e846106ef565b925061099c602085016106ef565b9150604084013590509250925092565b60208082526021908201527f4d6f636b46784f7261636c653a2063616c6c6572206973206e6f74206f776e656040820152603960f91b606082015260800190565b60208082526023908201527f4d6f636b46784f7261636c653a2072617465206d75737420626520706f73697460408201526269766560e81b606082015260800190565b634e487b7160e01b600052603260045260246000fd5b634e487b7160e01b600052601160045260246000fd5b600060018201610a6e57610a6e610a46565b5060010190565b8082028115828204841417610a8c57610a8c610a46565b92915050565b600082610aaf57634e487b7160e01b600052601260045260246000fd5b50049056fea26469706673582212207a7ec164f306e4e4f25f271ea3bbfd5457695fae8c2515d98e23005f83754d7764736f6c63430008140033","linkReferences":{}},"methodIdentifiers":{"RATE_PRECISION()":"2b3ba681","batchSetRates(address[],uint256[])":"3614c54b","convertAmount(address,address,uint256)":"69e1829d","getBatchRates(address[])":"4e444e7c","getRate(address)":"37cef791","isTokenSupported(address)":"75151b63","owner()":"8da5cb5b","setRate(address,uint256)":"2bdb7097","transferOwnership(address)":"f2fde38b"},"id":4}