{"abi":[{"type":"constructor","inputs":[],"stateMutability":"nonpayable"},{"type":"function","name":"batchRegister","inputs":[{"name":"sliqIds","type":"string[]","internalType":"string[]"},{"name":"wallets","type":"address[]","internalType":"address[]"}],"outputs":[],"stateMutability":"nonpayable"},{"type":"function","name":"getSliqIDByAddress","inputs":[{"name":"wallet","type":"address","internalType":"address"}],"outputs":[{"name":"sliqId","type":"string","internalType":"string"}],"stateMutability":"view"},{"type":"function","name":"isSliqIDRegistered","inputs":[{"name":"sliqId","type":"string","internalType":"string"}],"outputs":[{"name":"registered","type":"bool","internalType":"bool"}],"stateMutability":"view"},{"type":"function","name":"owner","inputs":[],"outputs":[{"name":"","type":"address","internalType":"address"}],"stateMutability":"view"},{"type":"function","name":"registerSliqID","inputs":[{"name":"sliqId","type":"string","internalType":"string"},{"name":"wallet","type":"address","internalType":"address"}],"outputs":[],"stateMutability":"nonpayable"},{"type":"function","name":"removeSliqID","inputs":[{"name":"sliqId","type":"string","internalType":"string"}],"outputs":[],"stateMutability":"nonpayable"},{"type":"function","name":"resolveAddress","inputs":[{"name":"sliqId","type":"string","internalType":"string"}],"outputs":[{"name":"wallet","type":"address","internalType":"address"}],"stateMutability":"view"},{"type":"function","name":"updateSliqID","inputs":[{"name":"sliqId","type":"string","internalType":"string"},{"name":"newWallet","type":"address","internalType":"address"}],"outputs":[],"stateMutability":"nonpayable"},{"type":"event","name":"SliqIDRegistered","inputs":[{"name":"sliqId","type":"string","indexed":true,"internalType":"string"},{"name":"wallet","type":"address","indexed":true,"internalType":"address"},{"name":"timestamp","type":"uint256","indexed":false,"internalType":"uint256"}],"anonymous":false},{"type":"event","name":"SliqIDUpdated","inputs":[{"name":"sliqId","type":"string","indexed":true,"internalType":"string"},{"name":"oldWallet","type":"address","indexed":true,"internalType":"address"},{"name":"newWallet","type":"address","indexed":true,"internalType":"address"},{"name":"timestamp","type":"uint256","indexed":false,"internalType":"uint256"}],"anonymous":false}],"bytecode":{"object":"0x608060405234801561001057600080fd5b50600280546001600160a01b03191633179055610f45806100326000396000f3fe608060405234801561001057600080fd5b50600436106100885760003560e01c80638da5cb5b1161005b5780638da5cb5b146100f1578063b6c6e6921461011c578063e80cd82e1461012f578063efdfbfed1461014257600080fd5b80633889936e1461008d5780636e7507c4146100a257806384af5334146100cb5780638507b398146100de575b600080fd5b6100a061009b366004610a54565b610165565b005b6100b56100b0366004610aad565b610233565b6040516100c29190610af3565b60405180910390f35b6100a06100d9366004610bbc565b6102df565b6100a06100ec366004610c90565b610579565b600254610104906001600160a01b031681565b6040516001600160a01b0390911681526020016100c2565b61010461012a366004610a54565b6106f1565b6100a061013d366004610c90565b610721565b610155610150366004610a54565b61090a565b60405190151581526020016100c2565b6002546001600160a01b031633146101985760405162461bcd60e51b815260040161018f90610cde565b60405180910390fd5b600080826040516101a99190610d25565b908152604051908190036020019020546001600160a01b03169050806101e15760405162461bcd60e51b815260040161018f90610d41565b6000826040516101f19190610d25565b908152604080516020928190038301902080546001600160a01b03191690556001600160a01b03831660009081526001909252812061022f91610947565b5050565b6001600160a01b038116600090815260016020526040902080546060919061025a90610d8a565b80601f016020809104026020016040519081016040528092919081815260200182805461028690610d8a565b80156102d35780601f106102a8576101008083540402835291602001916102d3565b820191906000526020600020905b8154815290600101906020018083116102b657829003601f168201915b50505050509050919050565b6002546001600160a01b031633146103095760405162461bcd60e51b815260040161018f90610cde565b805182511461036c5760405162461bcd60e51b815260206004820152602960248201527f4d6f636b536c6971494452656769737472793a206172726179206c656e677468604482015268040dad2e6dac2e8c6d60bb1b606482015260840161018f565b60005b82518110156105745760006001600160a01b0316600084838151811061039757610397610dc4565b60200260200101516040516103ac9190610d25565b908152604051908190036020019020546001600160a01b03161480156103fe575060006001600160a01b03168282815181106103ea576103ea610dc4565b60200260200101516001600160a01b031614155b156105625781818151811061041557610415610dc4565b6020026020010151600084838151811061043157610431610dc4565b60200260200101516040516104469190610d25565b908152602001604051809103902060006101000a8154816001600160a01b0302191690836001600160a01b0316021790555082818151811061048a5761048a610dc4565b6020026020010151600160008484815181106104a8576104a8610dc4565b60200260200101516001600160a01b03166001600160a01b0316815260200190815260200160002090816104dc9190610e28565b508181815181106104ef576104ef610dc4565b60200260200101516001600160a01b031683828151811061051257610512610dc4565b60200260200101516040516105279190610d25565b604051908190038120428252907fba82aaf540d077d7cb0f1c594920256650118c2ec6c1a3d4d6e4bf90d309a51d9060200160405180910390a35b8061056c81610ee8565b91505061036f565b505050565b6000808360405161058a9190610d25565b908152604051908190036020019020546001600160a01b03169050806105c25760405162461bcd60e51b815260040161018f90610d41565b6001600160a01b0382166106185760405162461bcd60e51b815260206004820181905260248201527f4d6f636b536c6971494452656769737472793a207a65726f2061646472657373604482015260640161018f565b816000846040516106299190610d25565b908152604080516020928190038301902080546001600160a01b0319166001600160a01b039485161790559183166000908152600190915290812061066d91610947565b6001600160a01b038216600090815260016020526040902061068f8482610e28565b50816001600160a01b0316816001600160a01b0316846040516106b29190610d25565b604051908190038120428252907fa8ec3b1c0cc3a09093a4ea2eb34c013c03e19c8ab9122d7577799d6dfcf643d59060200160405180910390a4505050565b600080826040516107029190610d25565b908152604051908190036020019020546001600160a01b031692915050565b60008251116107725760405162461bcd60e51b815260206004820181905260248201527f4d6f636b536c6971494452656769737472793a20656d70747920536c69714944604482015260640161018f565b6001600160a01b0381166107c85760405162461bcd60e51b815260206004820181905260248201527f4d6f636b536c6971494452656769737472793a207a65726f2061646472657373604482015260640161018f565b60006001600160a01b03166000836040516107e39190610d25565b908152604051908190036020019020546001600160a01b03161461085f5760405162461bcd60e51b815260206004820152602d60248201527f4d6f636b536c6971494452656769737472793a20536c6971494420616c72656160448201526c191e481c9959da5cdd195c9959609a1b606482015260840161018f565b806000836040516108709190610d25565b908152604080516020928190038301902080546001600160a01b0319166001600160a01b0394851617905591831660009081526001909152206108b38382610e28565b50806001600160a01b0316826040516108cc9190610d25565b604051908190038120428252907fba82aaf540d077d7cb0f1c594920256650118c2ec6c1a3d4d6e4bf90d309a51d9060200160405180910390a35050565b6000806001600160a01b03166000836040516109269190610d25565b908152604051908190036020019020546001600160a01b0316141592915050565b50805461095390610d8a565b6000825580601f10610963575050565b601f0160209004906000526020600020908101906109819190610984565b50565b5b808211156109995760008155600101610985565b5090565b634e487b7160e01b600052604160045260246000fd5b604051601f8201601f1916810167ffffffffffffffff811182821017156109dc576109dc61099d565b604052919050565b600082601f8301126109f557600080fd5b813567ffffffffffffffff811115610a0f57610a0f61099d565b610a22601f8201601f19166020016109b3565b818152846020838601011115610a3757600080fd5b816020850160208301376000918101602001919091529392505050565b600060208284031215610a6657600080fd5b813567ffffffffffffffff811115610a7d57600080fd5b610a89848285016109e4565b949350505050565b80356001600160a01b0381168114610aa857600080fd5b919050565b600060208284031215610abf57600080fd5b610ac882610a91565b9392505050565b60005b83811015610aea578181015183820152602001610ad2565b50506000910152565b6020815260008251806020840152610b12816040850160208701610acf565b601f01601f19169190910160400192915050565b600067ffffffffffffffff821115610b4057610b4061099d565b5060051b60200190565b600082601f830112610b5b57600080fd5b81356020610b70610b6b83610b26565b6109b3565b82815260059290921b84018101918181019086841115610b8f57600080fd5b8286015b84811015610bb157610ba481610a91565b8352918301918301610b93565b509695505050505050565b60008060408385031215610bcf57600080fd5b823567ffffffffffffffff80821115610be757600080fd5b818501915085601f830112610bfb57600080fd5b81356020610c0b610b6b83610b26565b82815260059290921b84018101918181019089841115610c2a57600080fd5b8286015b84811015610c6257803586811115610c465760008081fd5b610c548c86838b01016109e4565b845250918301918301610c2e565b5096505086013592505080821115610c7957600080fd5b50610c8685828601610b4a565b9150509250929050565b60008060408385031215610ca357600080fd5b823567ffffffffffffffff811115610cba57600080fd5b610cc6858286016109e4565b925050610cd560208401610a91565b90509250929050565b60208082526027908201527f4d6f636b536c6971494452656769737472793a2063616c6c6572206973206e6f6040820152663a1037bbb732b960c91b606082015260800190565b60008251610d37818460208701610acf565b9190910192915050565b60208082526029908201527f4d6f636b536c6971494452656769737472793a20536c69714944206e6f7420726040820152681959da5cdd195c995960ba1b606082015260800190565b600181811c90821680610d9e57607f821691505b602082108103610dbe57634e487b7160e01b600052602260045260246000fd5b50919050565b634e487b7160e01b600052603260045260246000fd5b601f82111561057457600081815260208120601f850160051c81016020861015610e015750805b601f850160051c820191505b81811015610e2057828155600101610e0d565b505050505050565b815167ffffffffffffffff811115610e4257610e4261099d565b610e5681610e508454610d8a565b84610dda565b602080601f831160018114610e8b5760008415610e735750858301515b600019600386901b1c1916600185901b178555610e20565b600085815260208120601f198616915b82811015610eba57888601518255948401946001909101908401610e9b565b5085821015610ed85787850151600019600388901b60f8161c191681555b5050505050600190811b01905550565b600060018201610f0857634e487b7160e01b600052601160045260246000fd5b506001019056fea26469706673582212204544f9741c5b591a469d6880e556ed68b00246ff811c7a5a1239bb1775ab6b4164736f6c63430008140033","linkReferences":{}},"methodIdentifiers":{"batchRegister(string[],address[])":"84af5334","getSliqIDByAddress(address)":"6e7507c4","isSliqIDRegistered(string)":"efdfbfed","owner()":"8da5cb5b","registerSliqID(string,address)":"e80cd82e","removeSliqID(string)":"3889936e","resolveAddress(string)":"b6c6e692","updateSliqID(string,address)":"8507b398"},"id":5}