{"abi":[{"type":"constructor","inputs":[{"name":"_sliqIDRegistry","type":"address","internalType":"address"},{"name":"_fxOracle","type":"address","internalType":"address"}],"stateMutability":"nonpayable"},{"type":"receive","stateMutability":"payable"},{"type":"function","name":"NATIVE_TOKEN","inputs":[],"outputs":[{"name":"","type":"address","internalType":"address"}],"stateMutability":"view"},{"type":"function","name":"addOperator","inputs":[{"name":"operator","type":"address","internalType":"address"}],"outputs":[],"stateMutability":"nonpayable"},{"type":"function","name":"convertAsset","inputs":[{"name":"fromSliqId","type":"string","internalType":"string"},{"name":"toSliqId","type":"string","internalType":"string"},{"name":"fromToken","type":"address","internalType":"address"},{"name":"toToken","type":"address","internalType":"address"},{"name":"amount","type":"uint256","internalType":"uint256"}],"outputs":[],"stateMutability":"nonpayable"},{"type":"function","name":"fxOracle","inputs":[],"outputs":[{"name":"","type":"address","internalType":"contract IMockFxOracle"}],"stateMutability":"view"},{"type":"function","name":"getBalance","inputs":[{"name":"sliqId","type":"string","internalType":"string"},{"name":"token","type":"address","internalType":"address"}],"outputs":[{"name":"balance","type":"uint256","internalType":"uint256"}],"stateMutability":"view"},{"type":"function","name":"getBalances","inputs":[{"name":"sliqId","type":"string","internalType":"string"},{"name":"tokens","type":"address[]","internalType":"address[]"}],"outputs":[{"name":"balances","type":"uint256[]","internalType":"uint256[]"}],"stateMutability":"view"},{"type":"function","name":"isOperator","inputs":[{"name":"account","type":"address","internalType":"address"}],"outputs":[{"name":"","type":"bool","internalType":"bool"}],"stateMutability":"view"},{"type":"function","name":"operators","inputs":[{"name":"","type":"address","internalType":"address"}],"outputs":[{"name":"","type":"bool","internalType":"bool"}],"stateMutability":"view"},{"type":"function","name":"owner","inputs":[],"outputs":[{"name":"","type":"address","internalType":"address"}],"stateMutability":"view"},{"type":"function","name":"pause","inputs":[],"outputs":[],"stateMutability":"nonpayable"},{"type":"function","name":"paused","inputs":[],"outputs":[{"name":"","type":"bool","internalType":"bool"}],"stateMutability":"view"},{"type":"function","name":"removeOperator","inputs":[{"name":"operator","type":"address","internalType":"address"}],"outputs":[],"stateMutability":"nonpayable"},{"type":"function","name":"routePayment","inputs":[{"name":"recipientSliqId","type":"string","internalType":"string"},{"name":"token","type":"address","internalType":"address"},{"name":"amount","type":"uint256","internalType":"uint256"}],"outputs":[],"stateMutability":"nonpayable"},{"type":"function","name":"routePaymentNative","inputs":[{"name":"recipientSliqId","type":"string","internalType":"string"}],"outputs":[],"stateMutability":"payable"},{"type":"function","name":"setFxOracle","inputs":[{"name":"newOracle","type":"address","internalType":"address"}],"outputs":[],"stateMutability":"nonpayable"},{"type":"function","name":"setSliqIDRegistry","inputs":[{"name":"newRegistry","type":"address","internalType":"address"}],"outputs":[],"stateMutability":"nonpayable"},{"type":"function","name":"sliqBalances","inputs":[{"name":"","type":"string","internalType":"string"},{"name":"","type":"address","internalType":"address"}],"outputs":[{"name":"","type":"uint256","internalType":"uint256"}],"stateMutability":"view"},{"type":"function","name":"sliqIDRegistry","inputs":[],"outputs":[{"name":"","type":"address","internalType":"contract ISliqIDRegistry"}],"stateMutability":"view"},{"type":"function","name":"transferOwnership","inputs":[{"name":"newOwner","type":"address","internalType":"address"}],"outputs":[],"stateMutability":"nonpayable"},{"type":"function","name":"unpause","inputs":[],"outputs":[],"stateMutability":"nonpayable"},{"type":"function","name":"withdraw","inputs":[{"name":"token","type":"address","internalType":"address"},{"name":"amount","type":"uint256","internalType":"uint256"},{"name":"to","type":"address","internalType":"address"}],"outputs":[],"stateMutability":"nonpayable"},{"type":"function","name":"withdrawNative","inputs":[{"name":"amount","type":"uint256","internalType":"uint256"},{"name":"to","type":"address","internalType":"address payable"}],"outputs":[],"stateMutability":"nonpayable"},{"type":"event","name":"AssetConverted","inputs":[{"name":"fromSliqId","type":"string","indexed":true,"internalType":"string"},{"name":"toSliqId","type":"string","indexed":true,"internalType":"string"},{"name":"fromToken","type":"address","indexed":false,"internalType":"address"},{"name":"toToken","type":"address","indexed":false,"internalType":"address"},{"name":"fromAmount","type":"uint256","indexed":false,"internalType":"uint256"},{"name":"toAmount","type":"uint256","indexed":false,"internalType":"uint256"},{"name":"rate","type":"uint256","indexed":false,"internalType":"uint256"},{"name":"timestamp","type":"uint256","indexed":false,"internalType":"uint256"}],"anonymous":false},{"type":"event","name":"BalanceUpdated","inputs":[{"name":"sliqId","type":"string","indexed":true,"internalType":"string"},{"name":"token","type":"address","indexed":true,"internalType":"address"},{"name":"newBalance","type":"uint256","indexed":false,"internalType":"uint256"},{"name":"timestamp","type":"uint256","indexed":false,"internalType":"uint256"}],"anonymous":false},{"type":"event","name":"OperatorAdded","inputs":[{"name":"operator","type":"address","indexed":true,"internalType":"address"},{"name":"timestamp","type":"uint256","indexed":false,"internalType":"uint256"}],"anonymous":false},{"type":"event","name":"OperatorRemoved","inputs":[{"name":"operator","type":"address","indexed":true,"internalType":"address"},{"name":"timestamp","type":"uint256","indexed":false,"internalType":"uint256"}],"anonymous":false},{"type":"event","name":"OracleUpdated","inputs":[{"name":"newOracle","type":"address","indexed":true,"internalType":"address"},{"name":"timestamp","type":"uint256","indexed":false,"internalType":"uint256"}],"anonymous":false},{"type":"event","name":"Paused","inputs":[{"name":"timestamp","type":"uint256","indexed":false,"internalType":"uint256"}],"anonymous":false},{"type":"event","name":"PaymentRouted","inputs":[{"name":"sender","type":"address","indexed":true,"internalType":"address"},{"name":"recipientSliqId","type":"string","indexed":true,"internalType":"string"},{"name":"token","type":"address","indexed":true,"internalType":"address"},{"name":"amount","type":"uint256","indexed":false,"internalType":"uint256"},{"name":"timestamp","type":"uint256","indexed":false,"internalType":"uint256"}],"anonymous":false},{"type":"event","name":"RegistryUpdated","inputs":[{"name":"newRegistry","type":"address","indexed":true,"internalType":"address"},{"name":"timestamp","type":"uint256","indexed":false,"internalType":"uint256"}],"anonymous":false},{"type":"event","name":"Unpaused","inputs":[{"name":"timestamp","type":"uint256","indexed":false,"internalType":"uint256"}],"anonymous":false},{"type":"event","name":"Withdrawn","inputs":[{"name":"token","type":"address","indexed":true,"internalType":"address"},{"name":"amount","type":"uint256","indexed":false,"internalType":"uint256"},{"name":"to","type":"address","indexed":true,"internalType":"address"},{"name":"timestamp","type":"uint256","indexed":false,"internalType":"uint256"}],"anonymous":false}],"bytecode":{"object":"0x608060405260016006553480156200001657600080fd5b50604051620024ef380380620024ef833981016040819052620000399162000114565b6001600160a01b038216620000ab5760405162461bcd60e51b815260206004820152602e60248201527f54726561737572795661756c743a2072656769737472792063616e6e6f74206260448201526d65207a65726f206164647265737360901b606482015260840160405180910390fd5b600080546001600160a01b039384166001600160a01b03199182161790915560018054929093169181169190911790915560038054909116331790556005805460ff191690556200014c565b80516001600160a01b03811681146200010f57600080fd5b919050565b600080604083850312156200012857600080fd5b6200013383620000f7565b91506200014360208401620000f7565b90509250929050565b612393806200015c6000396000f3fe6080604052600436106101385760003560e01c80638456cb59116100ab5780639870d7fe1161006f5780639870d7fe14610392578063a5306e56146103b2578063ac8a584a146103d2578063afc69dea146103f2578063b8ca8dd814610412578063f2fde38b1461043257600080fd5b80638456cb591461030a57806389f4b3171461031f5780638acced631461033f5780638da5cb5b14610352578063932517111461037257600080fd5b806346b9708d116100fd57806346b9708d1461020d5780634ebf9f4f146102635780635c975abb1461028357806369328dec1461029d5780636d70f7ae146102bd57806381969118146102dd57600080fd5b8062eeecf91461014457806313e7c9d8146101665780632e0ea500146101ab57806331f7d964146101cb5780633f4ba83a146101f857600080fd5b3661013f57005b600080fd5b34801561015057600080fd5b5061016461015f366004611c28565b610452565b005b34801561017257600080fd5b50610196610181366004611c28565b60046020526000908152604090205460ff1681565b60405190151581526020015b60405180910390f35b3480156101b757600080fd5b506101646101c6366004611c28565b6104da565b3480156101d757600080fd5b506101e0600081565b6040516001600160a01b0390911681526020016101a2565b34801561020457600080fd5b506101646105bf565b34801561021957600080fd5b50610255610228366004611d03565b81516020818401810180516002825292820194820194909420919093529091526000908152604090205481565b6040519081526020016101a2565b34801561026f57600080fd5b5061016461027e366004611d55565b61067b565b34801561028f57600080fd5b506005546101969060ff1681565b3480156102a957600080fd5b506101646102b8366004611de6565b610cc9565b3480156102c957600080fd5b506101966102d8366004611c28565b610f1c565b3480156102e957600080fd5b506102fd6102f8366004611e28565b610f56565b6040516101a29190611efe565b34801561031657600080fd5b5061016461103b565b34801561032b57600080fd5b5061025561033a366004611d03565b6110f7565b61016461034d366004611f42565b611138565b34801561035e57600080fd5b506003546101e0906001600160a01b031681565b34801561037e57600080fd5b506000546101e0906001600160a01b031681565b34801561039e57600080fd5b506101646103ad366004611c28565b6112f4565b3480156103be57600080fd5b506001546101e0906001600160a01b031681565b3480156103de57600080fd5b506101646103ed366004611c28565b611454565b3480156103fe57600080fd5b5061016461040d366004611f7f565b611538565b34801561041e57600080fd5b5061016461042d366004611fd9565b61180b565b34801561043e57600080fd5b5061016461044d366004611c28565b6119c3565b6003546001600160a01b031633146104855760405162461bcd60e51b815260040161047c90611ffe565b60405180910390fd5b600180546001600160a01b0319166001600160a01b0383169081179091556040514281527f41dd56c92c84169d8e89dc293d2649a911f47b357d3012bc88662395e01979d0906020015b60405180910390a250565b6003546001600160a01b031633146105045760405162461bcd60e51b815260040161047c90611ffe565b6001600160a01b0381166105715760405162461bcd60e51b815260206004820152602e60248201527f54726561737572795661756c743a2072656769737472792063616e6e6f74206260448201526d65207a65726f206164647265737360901b606482015260840161047c565b600080546001600160a01b0319166001600160a01b0383169081179091556040514281527f4a63627d9b745bf687f25e1ff329682bcc717cfa20399d09842845ae92c76fd6906020016104cf565b6003546001600160a01b031633146105e95760405162461bcd60e51b815260040161047c90611ffe565b60055460ff1661063b5760405162461bcd60e51b815260206004820152601960248201527f54726561737572795661756c743a206e6f742070617573656400000000000000604482015260640161047c565b6005805460ff191690556040514281527f9dd715fed52c25e642f97653bb4c4339ad98fe6d6e130348be82ae5d86383a8c906020015b60405180910390a1565b60065460011461069d5760405162461bcd60e51b815260040161047c90612040565b600260065560055460ff16156106c55760405162461bcd60e51b815260040161047c90612077565b3360009081526004602052604090205460ff16806106ed57506003546001600160a01b031633145b6107475760405162461bcd60e51b815260206004820152602560248201527f54726561737572795661756c743a2063616c6c6572206973206e6f74206f70656044820152643930ba37b960d91b606482015260840161047c565b600081116107675760405162461bcd60e51b815260040161047c906120b8565b60008551116107b85760405162461bcd60e51b815260206004820181905260248201527f54726561737572795661756c743a20656d7074792066726f6d20536c69714944604482015260640161047c565b60008451116108095760405162461bcd60e51b815260206004820152601e60248201527f54726561737572795661756c743a20656d70747920746f20536c697149440000604482015260640161047c565b6001546001600160a01b031661086d5760405162461bcd60e51b8152602060048201526024808201527f54726561737572795661756c743a206f7261636c65206e6f7420636f6e6669676044820152631d5c995960e21b606482015260840161047c565b60008054604051635b63734960e11b81526001600160a01b039091169063b6c6e6929061089e908990600401612128565b602060405180830381865afa1580156108bb573d6000803e3d6000fd5b505050506040513d601f19601f820116820180604052508101906108df919061215b565b60008054604051635b63734960e11b815292935090916001600160a01b039091169063b6c6e69290610915908990600401612128565b602060405180830381865afa158015610932573d6000803e3d6000fd5b505050506040513d601f19601f82011682018060405250810190610956919061215b565b90506001600160a01b0382166109c05760405162461bcd60e51b815260206004820152602960248201527f54726561737572795661756c743a2066726f6d20536c69714944206e6f7420726044820152681959da5cdd195c995960ba1b606482015260840161047c565b6001600160a01b038116610a265760405162461bcd60e51b815260206004820152602760248201527f54726561737572795661756c743a20746f20536c69714944206e6f74207265676044820152661a5cdd195c995960ca1b606482015260840161047c565b82600288604051610a379190612178565b90815260408051602092819003830190206001600160a01b038916600090815292529020541015610ac55760405162461bcd60e51b815260206004820152603260248201527f54726561737572795661756c743a20696e73756666696369656e742062616c616044820152713731b2903337b91031b7b73b32b939b4b7b760711b606482015260840161047c565b6001546040516369e1829d60e01b81526001600160a01b03878116600483015286811660248301526044820186905260009216906369e1829d90606401602060405180830381865afa158015610b1f573d6000803e3d6000fd5b505050506040513d601f19601f82011682018060405250810190610b439190612194565b905060008111610ba85760405162461bcd60e51b815260206004820152602a60248201527f54726561737572795661756c743a20636f6e76657273696f6e20726573756c74604482015269656420696e207a65726f60b01b606482015260840161047c565b6001546040516337cef79160e01b81526001600160a01b03888116600483015260009216906337cef79190602401602060405180830381865afa158015610bf3573d6000803e3d6000fd5b505050506040513d601f19601f82011682018060405250810190610c179190612194565b9050610c24898887611a7d565b610c2f888784611bbf565b87604051610c3d9190612178565b604051809103902089604051610c539190612178565b604080519182900382206001600160a01b03808c1684528a16602084015290820188905260608201859052608082018490524260a0830152907f2e09fddb40f50c16565fedbf10a6a3ac861a8349113f958b1fdb4c7d310b29af9060c00160405180910390a35050600160065550505050505050565b6003546001600160a01b03163314610cf35760405162461bcd60e51b815260040161047c90611ffe565b600654600114610d155760405162461bcd60e51b815260040161047c90612040565b60026006556001600160a01b038116610d405760405162461bcd60e51b815260040161047c906121ad565b60008211610d605760405162461bcd60e51b815260040161047c906120b8565b6040516370a0823160e01b81523060048201526000906001600160a01b038516906370a0823190602401602060405180830381865afa158015610da7573d6000803e3d6000fd5b505050506040513d601f19601f82011682018060405250810190610dcb9190612194565b905082811015610e325760405162461bcd60e51b815260206004820152602c60248201527f54726561737572795661756c743a20696e73756666696369656e7420636f6e7460448201526b726163742062616c616e636560a01b606482015260840161047c565b60405163a9059cbb60e01b81526001600160a01b038381166004830152602482018590526000919086169063a9059cbb906044016020604051808303816000875af1158015610e85573d6000803e3d6000fd5b505050506040513d601f19601f82011682018060405250810190610ea991906121fb565b905080610ec85760405162461bcd60e51b815260040161047c9061221d565b604080518581524260208201526001600160a01b0380861692908816917f6562355720ad5e9816350753de199edab487334dc9b97f1b15e35e1907ca7ed5910160405180910390a350506001600655505050565b6001600160a01b03811660009081526004602052604081205460ff1680610f5057506003546001600160a01b038381169116145b92915050565b6060815167ffffffffffffffff811115610f7257610f72611c4c565b604051908082528060200260200182016040528015610f9b578160200160208202803683370190505b50905060005b825181101561103457600284604051610fba9190612178565b90815260200160405180910390206000848381518110610fdc57610fdc612261565b60200260200101516001600160a01b03166001600160a01b031681526020019081526020016000205482828151811061101757611017612261565b60209081029190910101528061102c8161228d565b915050610fa1565b5092915050565b6003546001600160a01b031633146110655760405162461bcd60e51b815260040161047c90611ffe565b60055460ff16156110b85760405162461bcd60e51b815260206004820152601d60248201527f54726561737572795661756c743a20616c726561647920706175736564000000604482015260640161047c565b6005805460ff191660011790556040517f32fb7c9891bc4f963c7de9f1186d2a7755c7d6e9f4604dabe1d8bb3027c2f49e906106719042815260200190565b60006002836040516111099190612178565b908152604080519182900360209081019092206001600160a01b03851660009081529252902054905092915050565b60065460011461115a5760405162461bcd60e51b815260040161047c90612040565b600260065560055460ff16156111825760405162461bcd60e51b815260040161047c90612077565b600034116111a25760405162461bcd60e51b815260040161047c906120b8565b60008151116111f35760405162461bcd60e51b815260206004820152601b60248201527f54726561737572795661756c743a20656d70747920536c697149440000000000604482015260640161047c565b60008054604051635b63734960e11b81526001600160a01b039091169063b6c6e69290611224908590600401612128565b602060405180830381865afa158015611241573d6000803e3d6000fd5b505050506040513d601f19601f82011682018060405250810190611265919061215b565b90506001600160a01b03811661128d5760405162461bcd60e51b815260040161047c906122a6565b61129982600034611bbf565b6040516000906112aa908490612178565b604080519182900382203483524260208401529133917f958816ff35b1982410204bbdf8fd41a4c1b3cd88b23580558d12851a71a258f9910160405180910390a450506001600655565b6003546001600160a01b0316331461131e5760405162461bcd60e51b815260040161047c90611ffe565b6001600160a01b03811661138b5760405162461bcd60e51b815260206004820152602e60248201527f54726561737572795661756c743a206f70657261746f722063616e6e6f74206260448201526d65207a65726f206164647265737360901b606482015260840161047c565b6001600160a01b03811660009081526004602052604090205460ff16156113ff5760405162461bcd60e51b815260206004820152602260248201527f54726561737572795661756c743a20616c726561647920616e206f706572617460448201526137b960f11b606482015260840161047c565b6001600160a01b03811660008181526004602052604090819020805460ff19166001179055517fcbcb793495a5fd793da61a1d62ab99b58925f94b0a61beeec3ea7d7d6c4f2594906104cf9042815260200190565b6003546001600160a01b0316331461147e5760405162461bcd60e51b815260040161047c90611ffe565b6001600160a01b03811660009081526004602052604090205460ff166114e65760405162461bcd60e51b815260206004820152601e60248201527f54726561737572795661756c743a206e6f7420616e206f70657261746f720000604482015260640161047c565b6001600160a01b03811660008181526004602052604090819020805460ff19169055517f2360404a74478febece1a14f11275f22ada88d19ef96f7d785913010bfff4479906104cf9042815260200190565b60065460011461155a5760405162461bcd60e51b815260040161047c90612040565b600260065560055460ff16156115825760405162461bcd60e51b815260040161047c90612077565b600081116115a25760405162461bcd60e51b815260040161047c906120b8565b60008351116115f35760405162461bcd60e51b815260206004820152601b60248201527f54726561737572795661756c743a20656d70747920536c697149440000000000604482015260640161047c565b6001600160a01b0382166116685760405162461bcd60e51b815260206004820152603660248201527f54726561737572795661756c743a2075736520726f7574655061796d656e744e60448201527530ba34bb32903337b9103730ba34bb32903a37b5b2b760511b606482015260840161047c565b60008054604051635b63734960e11b81526001600160a01b039091169063b6c6e69290611699908790600401612128565b602060405180830381865afa1580156116b6573d6000803e3d6000fd5b505050506040513d601f19601f820116820180604052508101906116da919061215b565b90506001600160a01b0381166117025760405162461bcd60e51b815260040161047c906122a6565b6040516323b872dd60e01b8152336004820152306024820152604481018390526000906001600160a01b038516906323b872dd906064016020604051808303816000875af1158015611758573d6000803e3d6000fd5b505050506040513d601f19601f8201168201806040525081019061177c91906121fb565b90508061179b5760405162461bcd60e51b815260040161047c9061221d565b6117a6858585611bbf565b836001600160a01b0316856040516117be9190612178565b604080519182900382208683524260208401529133917f958816ff35b1982410204bbdf8fd41a4c1b3cd88b23580558d12851a71a258f9910160405180910390a450506001600655505050565b6003546001600160a01b031633146118355760405162461bcd60e51b815260040161047c90611ffe565b6006546001146118575760405162461bcd60e51b815260040161047c90612040565b60026006556001600160a01b0381166118825760405162461bcd60e51b815260040161047c906121ad565b600082116118a25760405162461bcd60e51b815260040161047c906120b8565b814710156118c25760405162461bcd60e51b815260040161047c906122f4565b6000816001600160a01b03168360405160006040518083038185875af1925050503d806000811461190f576040519150601f19603f3d011682016040523d82523d6000602084013e611914565b606091505b50509050806119735760405162461bcd60e51b815260206004820152602560248201527f54726561737572795661756c743a206e6174697665207472616e736665722066604482015264185a5b195960da1b606482015260840161047c565b604080518481524260208201526001600160a01b038416916000917f6562355720ad5e9816350753de199edab487334dc9b97f1b15e35e1907ca7ed5910160405180910390a35050600160065550565b6003546001600160a01b031633146119ed5760405162461bcd60e51b815260040161047c90611ffe565b6001600160a01b038116611a5b5760405162461bcd60e51b815260206004820152602f60248201527f54726561737572795661756c743a206e6577206f776e65722063616e6e6f742060448201526e6265207a65726f206164647265737360881b606482015260840161047c565b600380546001600160a01b0319166001600160a01b0392909216919091179055565b80600284604051611a8e9190612178565b90815260408051602092819003830190206001600160a01b038616600090815292529020541015611ad15760405162461bcd60e51b815260040161047c906122f4565b80600284604051611ae29190612178565b90815260200160405180910390206000846001600160a01b03166001600160a01b031681526020019081526020016000206000828254611b229190612337565b90915550506040516001600160a01b03831690611b40908590612178565b60405180910390207f9866d15961d32e8d8638ffe4b95e3a0c7febbf52f622eb7fbb312a7ef9a8533a600286604051611b799190612178565b9081526040805191829003602090810183206001600160a01b038916600090815291522054611bb2914290918252602082015260400190565b60405180910390a3505050565b80600284604051611bd09190612178565b90815260200160405180910390206000846001600160a01b03166001600160a01b031681526020019081526020016000206000828254611b22919061234a565b6001600160a01b0381168114611c2557600080fd5b50565b600060208284031215611c3a57600080fd5b8135611c4581611c10565b9392505050565b634e487b7160e01b600052604160045260246000fd5b604051601f8201601f1916810167ffffffffffffffff81118282101715611c8b57611c8b611c4c565b604052919050565b600082601f830112611ca457600080fd5b813567ffffffffffffffff811115611cbe57611cbe611c4c565b611cd1601f8201601f1916602001611c62565b818152846020838601011115611ce657600080fd5b816020850160208301376000918101602001919091529392505050565b60008060408385031215611d1657600080fd5b823567ffffffffffffffff811115611d2d57600080fd5b611d3985828601611c93565b9250506020830135611d4a81611c10565b809150509250929050565b600080600080600060a08688031215611d6d57600080fd5b853567ffffffffffffffff80821115611d8557600080fd5b611d9189838a01611c93565b96506020880135915080821115611da757600080fd5b50611db488828901611c93565b9450506040860135611dc581611c10565b92506060860135611dd581611c10565b949793965091946080013592915050565b600080600060608486031215611dfb57600080fd5b8335611e0681611c10565b9250602084013591506040840135611e1d81611c10565b809150509250925092565b60008060408385031215611e3b57600080fd5b823567ffffffffffffffff80821115611e5357600080fd5b611e5f86838701611c93565b9350602091508185013581811115611e7657600080fd5b8501601f81018713611e8757600080fd5b803582811115611e9957611e99611c4c565b8060051b9250611eaa848401611c62565b8181529282018401928481019089851115611ec457600080fd5b928501925b84841015611eee5783359250611ede83611c10565b8282529285019290850190611ec9565b8096505050505050509250929050565b6020808252825182820181905260009190848201906040850190845b81811015611f3657835183529284019291840191600101611f1a565b50909695505050505050565b600060208284031215611f5457600080fd5b813567ffffffffffffffff811115611f6b57600080fd5b611f7784828501611c93565b949350505050565b600080600060608486031215611f9457600080fd5b833567ffffffffffffffff811115611fab57600080fd5b611fb786828701611c93565b9350506020840135611fc881611c10565b929592945050506040919091013590565b60008060408385031215611fec57600080fd5b823591506020830135611d4a81611c10565b60208082526022908201527f54726561737572795661756c743a2063616c6c6572206973206e6f74206f776e60408201526132b960f11b606082015260800190565b6020808252601d908201527f54726561737572795661756c743a207265656e7472616e742063616c6c000000604082015260600190565b60208082526021908201527f54726561737572795661756c743a20636f6e74726163742069732070617573656040820152601960fa1b606082015260800190565b6020808252602c908201527f54726561737572795661756c743a20616d6f756e74206d75737420626520677260408201526b06561746572207468616e20360a41b606082015260800190565b60005b8381101561211f578181015183820152602001612107565b50506000910152565b6020815260008251806020840152612147816040850160208701612104565b601f01601f19169190910160400192915050565b60006020828403121561216d57600080fd5b8151611c4581611c10565b6000825161218a818460208701612104565b9190910192915050565b6000602082840312156121a657600080fd5b5051919050565b6020808252602e908201527f54726561737572795661756c743a2063616e6e6f74207769746864726177207460408201526d6f207a65726f206164647265737360901b606082015260800190565b60006020828403121561220d57600080fd5b81518015158114611c4557600080fd5b60208082526024908201527f54726561737572795661756c743a20746f6b656e207472616e736665722066616040820152631a5b195960e21b606082015260800190565b634e487b7160e01b600052603260045260246000fd5b634e487b7160e01b600052601160045260246000fd5b60006001820161229f5761229f612277565b5060010190565b6020808252602e908201527f54726561737572795661756c743a20726563697069656e7420536c697149442060408201526d1b9bdd081c9959da5cdd195c995960921b606082015260800190565b60208082526023908201527f54726561737572795661756c743a20696e73756666696369656e742062616c616040820152626e636560e81b606082015260800190565b81810381811115610f5057610f50612277565b80820180821115610f5057610f5061227756fea264697066735822122067c44d6142a3025339f73ec58ac997cbc44af302901159ec7cbb8a5a1481ef1164736f6c63430008140033","linkReferences":{}},"methodIdentifiers":{"NATIVE_TOKEN()":"31f7d964","addOperator(address)":"9870d7fe","convertAsset(string,string,address,address,uint256)":"4ebf9f4f","fxOracle()":"a5306e56","getBalance(string,address)":"89f4b317","getBalances(string,address[])":"81969118","isOperator(address)":"6d70f7ae","operators(address)":"13e7c9d8","owner()":"8da5cb5b","pause()":"8456cb59","paused()":"5c975abb","removeOperator(address)":"ac8a584a","routePayment(string,address,uint256)":"afc69dea","routePaymentNative(string)":"8acced63","setFxOracle(address)":"00eeecf9","setSliqIDRegistry(address)":"2e0ea500","sliqBalances(string,address)":"46b9708d","sliqIDRegistry()":"93251711","transferOwnership(address)":"f2fde38b","unpause()":"3f4ba83a","withdraw(address,uint256,address)":"69328dec","withdrawNative(uint256,address)":"b8ca8dd8"},"id":0}